:107800000C94343C0C94513C0C94513C0C94513CE1
:107810000C94513C0C94513C0C94513C0C94513CB4
:107820000C94513C0C94513C0C94513C0C94513CA4
:107830000C94513C0C94513C0C94513C0C94513C94
:107840000C94513C0C94513C0C94513C0C94513C84
:107850000C94513C0C94513C0C94513C0C94513C74
:107860000C94513C0C94513C11241FBECFEFD8E036
:10787000DEBFCDBF11E0A0E0B1E0E8E0FFE702C06D
:1078800005900D92A230B107D9F722E0A2E0B1E055
:1078900001C01D92A930B207E1F70E94243E0C946A
:1078A000823F0C94003CCF92DF92EF92FF921F93A5
:1078B000CF93DF93AFB7F894F999FECF7B0123E024
:1078C000FB0120935700E89507B600FCFDCF20E0B0
:1078D00030E0B1E0EA0118814E5F5F4FF901EE0D33
:1078E000FF1D6A01D1E0CD1AD108E601D880CD2C68
:1078F000D12CDC2CCC24C10ED11C0601B093570036
:10790000E89511242E5F3F4F2038310519F725E007
:10791000FB0120935700E89507B600FCFDCF81E1FD
:1079200080935700E895AFBF81E080930301DF911A
:10793000CF911F91FF90EF90DF90CF90089541E895
:107940005AE166E070E02091C00027FD06C041507A
:10795000510961097109B9F70EC02091C00024FDD9
:107960000AC02091C00022FD06C02091C600FC0183
:10797000208381E008958FEF089500D01F92CDB746
:10798000DEB714BE809160008061809360008091BA
:107990006000109260001B821092C5008FEC8093F3
:1079A000C40086E08093C2008091C2008062809310
:1079B000C2005098589A88E18093C100E0E0F0E05E
:1079C000849190E02491281391E03196E436F105FA
:1079D000C9F7909302018091C00087FF03C0809196
:1079E000C600F9CF8AEA80930101109203010E9438
:1079F000D73DCE0101960E949F3C809300018F3FAE
:107A000011F40E94CC3DCE0102960E949F3C8093CF
:107A100000018F3F11F40E94CC3D1981212F2F7757
:107A200030E0322F22278A81282BC901A0E0B0E064
:107A30009C01AD0164E0220F331F441F551F6A955E
:107A4000D1F760E078E689E899E00E94413FCA01F9
:107A5000B9016B5F7F4F8F4F9F4F2AE030E040E0CE
:107A600050E00E94413F215031093093C5002093DE
:107A7000C40017FD04C08091C2001092C200809122
:107A8000C00087FF03C08091C600F9CF8AEA8093C7
:107A900001010E94D73D81E1F82E86E091E00E942D
:107AA0009F3C809300018F3F11F40E94FE3D809126
:107AB0000601833541F4F0925700E895E091040106
:107AC000F0910501099587E092E00E949F3C809328
:107AD00000018F3F11F40E94FE3D88E092E00E9479
:107AE0009F3C809300018F3F11F40E94FE3DCE0128
:107AF00003960E949F3C809300018F3F11F40E94E7
:107B0000FE3D07E011E090910601492F50E09801F9
:107B1000275031402417350760F4C8010E949F3C6C
:107B2000809300018F3F11F40E94FE3D0F5F1F4FB5
:107B3000EACF2B81E7E0F1E0BF01675071406417A5
:107B4000750718F48191280FF7CF80910702820FF3
:107B500020910802820F890F8B8381111AC06091D6
:107B600007027091080280E090E047E051E00E9437
:107B7000533C81E091E00E949F3C809300018F3F45
:107B800029F0809101018A3309F487CF0E94FE3DDC
:107B900084CF0E94FE3DEDCF80910201813029F417
:107BA000E0910401F091050109940E94BD3C1F93EE
:107BB000CF93DF9310E0C0E0D0E0809101018A3ADA
:107BC00081F42196C530D1050CF011E081E091E0FF
:107BD0000E949F3C809300018F3F79F70E94CC3D2B
:107BE000ECCF113011F48A3329F0DF91CF911F913E
:107BF0000C94CC3DDF91CF911F91089580910301AA
:107C0000811105C08091020181110E94CC3D8FB786
:107C1000F894E0E0F0E023E091E1F999FECF07B6B7
:107C200000FCFDCF20935700E89507B600FCFDCF80
:107C300090935700E895E058FF4FE11538E7F307B8
:107C400061F78FBF0E94BD3C04B601FC0E946D3EEF
:107C50000E94BD3CFFCF2AE030E08095089410F4EC
:107C6000599802C0599A000015D014D086952A95CB
:107C7000B1F7089529E030E04B99FECF0BD00AD040
:107C800009D088944B9908942A9511F08795F7CFDD
:107C9000A89508959AE29A95F1F708950E943A3EC0
:107CA000803239F088E18093600088E08093600042
:107CB000FFCF84E10C942B3ECF93C82F0E943A3E15
:107CC000C150E1F7CF910C944E3EE0E6F0E088E140
:107CD00080831082EE27FF2709941F92CDB7DEB76D
:107CE000F89411248FEF98E09EBF8DBF84B714BE27
:107CF00081FF0E94653E88E1809360008EE0809362
:107D00006000259A519A5B9A599A612C712C08E16E
:107D100028E0F22EEE24E39435E0D32E41E1C42E88
:107D200013E00E943A3E813481F40E943A3E8983F6
:107D30000E944E3E8981823811F0813811F484E02E
:107D400001C083E00E942B3E98C0823411F484E18C
:107D500003C0853421F485E00E945C3E8EC08535E9
:107D600059F40E943A3EB82E0E943A3E6B2C712C78
:107D7000782A660C771C7FC0863529F484E00E943F
:107D80005C3E80E0DFCF843609F044C00E943A3E7A
:107D90000E943A3E982E0E943A3E611480E778068F
:107DA00018F4F30117BFE895A12CBB24B3940E94EB
:107DB0003A3EF50181935F019E12F9CF6114F0E71D
:107DC0007F0618F0F30117BFE8950E944E3E07B6F4
:107DD00000FCFDCFA301A0E0B1E08C9112969D01C3
:107DE00021503109F901208190E0922BFA010C0118
:107DF000E7BEE89511244E5F5F4FA038F1E0BF0762
:107E000061F7F301D7BEE89507B600FCFDCFC7BE0A
:107E1000E89533C08437E9F40E943A3E0E943A3E26
:107E2000982E0E943A3E0E944E3EF301862C890C09
:107E30005F018FEFA81AB80A84910E942B3EF501CA
:107E40008A10F6CFEFEF6E1A7E0A9A94690C711CB5
:107E500014C0853751F40E944E3E8EE10E942B3EA5
:107E600085E90E942B3E8FE06DCF813521F4009390
:107E70006000F09260000E944E3E80E10E942B3E26
:107E800050CF052E97FB1EF400940E94583F57FDDB
:107E900007D00E94603F07FC03D04EF40C94583F7B
:107EA00050954095309521953F4F4F4F5F4F089526
:107EB00090958095709561957F4F8F4F9F4F089556
:107EC000A1E21A2EAA1BBB1BFD010DC0AA1FBB1FDE
:107ED000EE1FFF1FA217B307E407F50720F0A21B50
:107EE000B30BE40BF50B661F771F881F991F1A94BD
:107EF00069F760957095809590959B01AC01BD01E7
:087F0000CF010895F894FFCFB2
:027F080001AACC
:040000030000780081
:00000001FF
