:107800000C94343C0C94513C0C94513C0C94513CE1
:107810000C94513C0C94513C0C94513C0C94513CB4
:107820000C94513C0C94513C0C94513C0C94513CA4
:107830000C94513C0C94513C0C94513C0C94513C94
:107840000C94513C0C94513C0C94513C0C94513C84
:107850000C94513C0C94513C0C94513C0C94513C74
:107860000C94513C0C94513C11241FBECFEFD8E036
:10787000DEBFCDBF11E0A0E0B1E0E6E7FEE702C069
:1078800005900D92A230B107D9F722E0A2E0B1E055
:1078900001C01D92AA30B207E1F70E941C3E0C9471
:1078A000393F0C94003CCF92DF92EF92FF921F93EE
:1078B000CF93DF93AFB7F894F999FECF7B0123E024
:1078C000FB0120935700E89507B600FCFDCF20E0B0
:1078D00030E0B1E0EA0118814E5F5F4FF901EE0D33
:1078E000FF1D6A01D1E0CD1AD108E601D880CD2C68
:1078F000D12CDC2CCC24C10ED11C0601B093570036
:10790000E89511242E5F3F4F2038310519F725E007
:10791000FB0120935700E89507B600FCFDCF81E1FD
:1079200080935700E895AFBF81E080930401DF9119
:10793000CF911F91FF90EF90DF90CF900895A89581
:107940000895E0E6F0E088E180838BE0808308958D
:10795000E0E6F0E088E18083108208959FEF9A9539
:10796000F1F79FEF9A95F1F79AE29A95F1F708955A
:107970000895CF93DF93C0E01B9905C00E94AE3CF1
:10798000CF5FC83CC9F7D8EC1B9B07C00E94AE3C38
:10799000D150D1F780E090E009C0C83CD9F3C5E1EF
:1079A0000E94AE3CC150E1F781E090E0DF91CF91C1
:1079B0000895CF93DF93EC0149E01B99FECFCEDF12
:1079C000CDDFCCDF88941B9908944A9511F0279558
:1079D000F7CF882788941B990894881FBFDFBEDFE4
:1079E00020930201922F092E92959025092E9695AB
:1079F000969590259F5F96959170891307C00E9478
:107A00009F3C80910201888381E001C08FEFDF916C
:107A1000CF9108951F92CDB7DEB7F89414BE14B875
:107A200015B81092680087E08BBB1DBA83E08CBB51
:107A30000E94A13C1982E0E0F0E0849190E0249162
:107A4000281391E03196E436F105C9F790930301CC
:107A500084B1806384B985B1807185B92D9A8AEA31
:107A600080930101109204010E94B93C892B11F40A
:107A70000E94C23D8AEA809301010E94CF3D81E1CC
:107A8000F82E87E091E00E94D93C809300018F3F5F
:107A900011F40E94F63D80910701833551F4F09274
:107AA0005700E8950E94A83CE0910501F09106017D
:107AB000099588E092E00E94D93C809300018F3FB5
:107AC00011F40E94F63D89E092E00E94D93C809337
:107AD00000018F3F11F40E94F63DCE0101960E94F5
:107AE000D93C809300018F3F11F40E94F63D08E0DD
:107AF00011E090910701492F50E098012850314042
:107B00002417350760F4C8010E94D93C8093000116
:107B10008F3F11F40E94F63D0F5F1F4FEACF29817E
:107B2000E8E0F1E0BF01685071406417750718F490
:107B30008191280FF7CF80910802820F20910902CE
:107B4000820F890F898381111AC060910802709198
:107B5000090280E090E048E051E00E94533C81E05F
:107B600091E00E94D93C809300018F3F29F08091E1
:107B700001018A3309F485CF0E94F63D82CF0E942D
:107B8000F63DEDCF0E94A83C80910301813029F49D
:107B9000E0910501F091060109940E940A3D1F93AE
:107BA000CF93DF9310E0C0E0D0E0809101018A3AEA
:107BB00081F42196C530D1050CF011E081E091E00F
:107BC0000E94D93C809300018F3F79F70E94C23D0B
:107BD000ECCF113011F48A3329F0DF91CF911F914E
:107BE0000C94C23DDF91CF911F91089580910401C3
:107BF000811105C08091030181110E94C23D8FB7A0
:107C0000F894E0E0F0E023E091E1F999FECF07B6C7
:107C100000FCFDCF20935700E89507B600FCFDCF90
:107C200090935700E895E058FF4FE11538E7F307C8
:107C300061F78FBF0E940A3D04B601FC0E94653EB9
:107C40000E940A3DFFCF2AE030E08095089410F4AE
:107C5000599802C0599A000015D014D086952A95DB
:107C6000B1F7089529E030E04899FECF0BD00AD053
:107C700009D08894489908942A9511F08795F7CFF0
:107C8000A89508959AE29A95F1F708950E94323ED8
:107C9000803239F088E18093600088E08093600052
:107CA000FFCF84E10C94233ECF93C82F0E94323E35
:107CB000C150E1F7CF910C94463EE0E6F0E088E158
:107CC00080831082EE27FF2709941F92CDB7DEB77D
:107CD000F89411248FEF98E09EBF8DBF84B714BE37
:107CE00081FF0E945D3E88E1809360008EE080937A
:107CF0006000259A519A589A599A612C712C08E182
:107D000028E0F22EEE24E39435E0D32E41E1C42E98
:107D100013E00E94323E813481F40E94323E898316
:107D20000E94463E8981823811F0813811F484E046
:107D300001C083E00E94233E98C0823411F484E1A4
:107D400003C0853421F485E00E94543E8EC0853501
:107D500059F40E94323EB82E0E94323E6B2C712C98
:107D6000782A660C771C7FC0863529F484E00E944F
:107D7000543E80E0DFCF843609F044C00E94323E9A
:107D80000E94323E982E0E94323E611480E77806AF
:107D900018F4F30117BFE895A12CBB24B3940E94FB
:107DA000323EF50181935F019E12F9CF6114F0E735
:107DB0007F0618F0F30117BFE8950E94463E07B60C
:107DC00000FCFDCFA301A0E0B1E08C9112969D01D3
:107DD00021503109F901208190E0922BFA010C0128
:107DE000E7BEE89511244E5F5F4FA038F1E0BF0772
:107DF00061F7F301D7BEE89507B600FCFDCFC7BE1B
:107E0000E89533C08437E9F40E94323E0E94323E46
:107E1000982E0E94323E0E94463EF301862C890C29
:107E20005F018FEFA81AB80A84910E94233EF501E2
:107E30008A10F6CFEFEF6E1A7E0A9A94690C711CC5
:107E400014C0853751F40E94463E8EE10E94233EC5
:107E500085E90E94233E8FE06DCF813521F40093A8
:107E60006000F09260000E94463E80E10E94233E46
:067E700050CFF894FFCF93
:027E760001AA5F
:040000030000780081
:00000001FF
