:107800000C94343C0C94513C0C94513C0C94513CE1
:107810000C94513C0C94513C0C94513C0C94513CB4
:107820000C94513C0C94513C0C94513C0C94513CA4
:107830000C94513C0C94513C0C94513C0C94513C94
:107840000C94513C0C94513C0C94513C0C94513C84
:107850000C94513C0C94513C0C94513C0C94513C74
:107860000C94513C0C94513C11241FBECFEFD8E036
:10787000DEBFCDBF11E0A0E0B1E0EEEBFCE702C05F
:1078800005900D92A230B107D9F722E0A2E0B1E055
:1078900001C01D92A930B207E1F70E94BD3C0C94D3
:1078A0005D3E0C94003CCF92DF92EF92FF921F93CB
:1078B000CF93DF93AFB7F894F999FECF7B0123E024
:1078C000FB0120935700E89507B600FCFDCF20E0B0
:1078D00030E0B1E0EA0118814E5F5F4FF901EE0D33
:1078E000FF1D6A01D1E0CD1AD108E601D880CD2C68
:1078F000D12CDC2CCC24C10ED11C0601B093570036
:10790000E89511242E5F3F4F2038310519F725E007
:10791000FB0120935700E89507B600FCFDCF81E1FD
:1079200080935700E895AFBF81E080930301DF911A
:10793000CF911F91FF90EF90DF90CF90089541E895
:107940005AE166E070E02091C00027FD06C041507A
:10795000510961097109B9F70EC02091C00024FDD9
:107960000AC02091C00022FD06C02091C600FC0183
:10797000208381E008958FEF0895CF93DF9300D0A7
:107980001F92CDB7DEB71B821092C5008FEC80939B
:10799000C40086E08093C2008091C2008062809320
:1079A000C2005098589A88E18093C100E0E0F0E06E
:1079B000849190E02491281391E03196E436F1050A
:1079C000C9F7909302018091C00087FF03C08091A6
:1079D000C600F9CF8AEA80930101109203010E9448
:1079E000CF3DCE0101960E949F3C809300018F3FC6
:1079F00011F40E94C43DCE0102960E949F3C8093E8
:107A000000018F3F11F40E94C43D1981212F2F776F
:107A100030E0322F22278A81282BC901A0E0B0E074
:107A20009C01AD0164E0220F331F441F551F6A956E
:107A3000D1F760E078E689E899E00E941C3ECA012F
:107A4000B9016B5F7F4F8F4F9F4F2AE030E040E0DE
:107A500050E00E941C3E215031093093C500209314
:107A6000C40017FD04C08091C2001092C200809132
:107A7000C00087FF03C08091C600F9CF8AEA8093D7
:107A800001010E94CF3D81E1F82E86E091E00E9445
:107A90009F3C809300018F3F11F40E94F63D80913E
:107AA0000601833541F4F0925700E895E091040116
:107AB000F0910501099587E092E00E949F3C809338
:107AC00000018F3F11F40E94F63D88E092E00E9491
:107AD0009F3C809300018F3F11F40E94F63DCE0140
:107AE00003960E949F3C809300018F3F11F40E94F7
:107AF000F63D07E011E090910601492F50E0980112
:107B0000275031402417350760F4C8010E949F3C7C
:107B1000809300018F3F11F40E94F63D0F5F1F4FCD
:107B2000EACF2B81E7E0F1E0BF01675071406417B5
:107B3000750718F48191280FF7CF80910702820F03
:107B400020910802820F890F8B8381111AC06091E6
:107B500007027091080280E090E047E051E00E9447
:107B6000533C81E091E00E949F3C809300018F3F55
:107B700029F0809101018A3309F487CF0E94F63DF4
:107B800084CF0E94F63DEDCF80910201813029F42F
:107B9000E0910401F091050109940E94BD3C1F93FE
:107BA000CF93DF9310E0C0E0D0E0809101018A3AEA
:107BB00081F42196C530D1050CF011E081E091E00F
:107BC0000E949F3C809300018F3F79F70E94C43D43
:107BD000ECCF113011F48A3329F0DF91CF911F914E
:107BE0000C94C43DDF91CF911F91089580910301C2
:107BF000811105C08091020181110E94C43D8FB79F
:107C0000F894E0E0F0E023E091E1F999FECF07B6C7
:107C100000FCFDCF20935700E89507B600FCFDCF90
:107C200090935700E895E058FF4FE11538E7F307C8
:107C300061F78FBF0E94BD3C052E97FB1EF4009498
:107C40000E94333E57FD07D00E943B3E07FC03D005
:107C50004EF40C94333E50954095309521953F4F0E
:107C60004F4F5F4F089590958095709561957F4F28
:107C70008F4F9F4F0895A1E21A2EAA1BBB1BFD0137
:107C80000DC0AA1FBB1FEE1FFF1FA217B307E407FB
:107C9000F50720F0A21BB30BE40BF50B661F771F53
:107CA000881F991F1A9469F7609570958095909533
:0E7CB0009B01AC01BD01CF010895F894FFCFF8
:027CBE0001AA19
:040000030000780081
:00000001FF
