:107800000C94343C0C94513C0C94513C0C94513CE1
:107810000C94513C0C94513C0C94513C0C94513CB4
:107820000C94513C0C94513C0C94513C0C94513CA4
:107830000C94513C0C94513C0C94513C0C94513C94
:107840000C94513C0C94513C0C94513C0C94513C84
:107850000C94513C0C94513C0C94513C0C94513C74
:107860000C94513C0C94513C11241FBECFEFD8E036
:10787000DEBFCDBF11E0A0E0B1E0ECE6FEE702C064
:1078800005900D92A230B107D9F722E0A2E0B1E055
:1078900001C01D92AA30B207E1F70E941F3E0C946E
:1078A000343F0C94003CCF92DF92EF92FF921F93F3
:1078B000CF93DF93AFB7F894F999FECF7B0123E024
:1078C000FB0120935700E89507B600FCFDCF20E0B0
:1078D00030E0B1E0EA0118814E5F5F4FF901EE0D33
:1078E000FF1D6A01D1E0CD1AD108E601D880CD2C68
:1078F000D12CDC2CCC24C10ED11C0601B093570036
:10790000E89511242E5F3F4F2038310519F725E007
:10791000FB0120935700E89507B600FCFDCF81E1FD
:1079200080935700E895AFBF81E080930401DF9119
:10793000CF911F91FF90EF90DF90CF900895A89581
:107940000895E0E6F0E088E180838BE0808308958D
:10795000E0E6F0E088E18083108208959FEF9A9539
:10796000F1F79FEF9A95F1F79AE29A95F1F708955A
:107970000895CF93DF93C0E01B9905C00E94AE3CF1
:10798000CF5FC83CC9F7D8EC1B9B07C00E94AE3C38
:10799000D150D1F780E090E009C0C83CD9F3C5E1EF
:1079A0000E94AE3CC150E1F781E090E0DF91CF91C1
:1079B0000895CF93DF93EC0149E01B99FECFCEDF12
:1079C000CDDFCCDF88941B9908944A9511F0279558
:1079D000F7CF882788941B990894881FBFDFBEDFE4
:1079E00020930201922F092E92959025092E9695AB
:1079F000969590259F5F96959170891307C00E9478
:107A00009F3C80910201888381E001C08FEFDF916C
:107A1000CF9108951F92CDB7DEB7F89414BE14B875
:107A200015B81092680087E08BBB1DBA83E08CBB51
:107A30000E94A13C1982E0E0F0E0849190E0249162
:107A4000281391E03196E436F105C9F790930301CC
:107A500080E384B980E285B98AEA809301011092BB
:107A600004010E94B93C892B11F40E94C23D8AEAAC
:107A7000809301010E94D23D81E1F82E87E091E0E0
:107A80000E94D93C809300018F3F11F40E94F93D80
:107A900080910701833569F4F0925700E8950E94C0
:107AA000A83C84B184B915B8E0910501F0910601B4
:107AB000099588E092E00E94D93C809300018F3FB5
:107AC00011F40E94F93D89E092E00E94D93C809334
:107AD00000018F3F11F40E94F93DCE0101960E94F2
:107AE000D93C809300018F3F11F40E94F93D08E0DA
:107AF00011E090910701492F50E098012850314042
:107B00002417350760F4C8010E94D93C8093000116
:107B10008F3F11F40E94F93D0F5F1F4FEACF29817B
:107B2000E8E0F1E0BF01685071406417750718F490
:107B30008191280FF7CF80910802820F20910902CE
:107B4000820F890F898381111AC060910802709198
:107B5000090280E090E048E051E00E94533C81E05F
:107B600091E00E94D93C809300018F3F29F08091E1
:107B700001018A3309F482CF0E94F93D7FCF0E9430
:107B8000F93DEDCF0E94A83C84B184B915B880912D
:107B90000301813029F4E0910501F0910601099477
:107BA0000E940A3D1F93CF93DF9310E0C0E0D0E026
:107BB000809101018A3A81F42196C530D1050CF0FB
:107BC00011E081E091E00E94D93C809300018F3F59
:107BD00079F70E94C23DECCF113011F48A3329F0BD
:107BE000DF91CF911F910C94C23DDF91CF911F91F6
:107BF000089580910401811105C0809103018111D4
:107C00000E94C23D8FB7F894E0E0F0E023E091E1FC
:107C1000F999FECF07B600FCFDCF20935700E895F9
:107C200007B600FCFDCF90935700E895E058FF4F52
:107C3000E11538E7F30761F78FBF0E940A3D04B6EC
:107C400001FC0E94583E0E940A3DFFCF9091C00067
:107C500095FFFCCF8093C60008958091C00087FFF8
:107C6000FCCF8091C00084FD01C0A8958091C60022
:107C700008950E942D3E803239F088E180936000A3
:107C800088E080936000FFCF84E10C94263ECF9380
:107C9000C82F0E942D3EC150E1F7CF910C94393E80
:107CA000E0E6F0E088E180831082EE27FF27099468
:107CB0001F92CDB7DEB7F89411248FEF98E09EBFE6
:107CC0008DBF84B714BE81FF0E94503E82E0809336
:107CD000C00088E18093C10096E09093C20090E1DB
:107CE0009093C400809360008EE080936000259A9A
:107CF000612C712C08E128E0F22EEE24E39435E0AB
:107D0000D32E41E1C42E13E00E942D3E813481F434
:107D10000E942D3E89830E94393E8981823811F06C
:107D2000813811F484E001C083E00E94263E98C0AF
:107D3000823411F484E103C0853421F485E00E948B
:107D4000473E8EC0853559F40E942D3EB82E0E94C4
:107D50002D3E6B2C712C782A660C771C7FC08635E3
:107D600029F484E00E94473E80E0DFCF843609F0AA
:107D700044C00E942D3E0E942D3E982E0E942D3E12
:107D8000611480E7780618F4F30117BFE895A12C79
:107D9000BB24B3940E942D3EF50181935F019E1296
:107DA000F9CF6114F0E77F0618F0F30117BFE895EB
:107DB0000E94393E07B600FCFDCFA301A0E0B1E070
:107DC0008C9112969D0121503109F901208190E09A
:107DD000922BFA010C01E7BEE89511244E5F5F4F2C
:107DE000A038F1E0BF0761F7F301D7BEE89507B609
:107DF00000FCFDCFC7BEE89533C08437E9F40E948C
:107E00002D3E0E942D3E982E0E942D3E0E94393E0E
:107E1000F301862C890C5F018FEFA81AB80A8491B0
:107E20000E94263EF5018A10F6CFEFEF6E1A7E0A09
:107E30009A94690C711C14C0853751F40E94393E24
:107E40008EE10E94263E85E90E94263E8FE06DCF9E
:107E5000813521F400936000F09260000E94393E69
:0C7E600080E10E94263E50CFF894FFCF36
:027E6C0001AA69
:040000030000780081
:00000001FF
